:020000040800F2
:1000000020CE0020D10200080F2C0008AF270008E6
:100010000D2C000801040008153B0008000000003A
:100020000000000000000000000000000D020008B9
:10003000290400080000000069020008F52E0008ED
:10004000EB020008EB020008EB020008EB020008DC
:10005000EB020008EB020008EB020008EB020008CC
:10006000EB020008EB020008EB020008EB020008BC
:10007000EB020008EB020008EB020008EB020008AC
:10008000EB020008EB020008EB020008EB0200089C
:10009000EB020008EB020008EB020008EB0200088C
:1000A000EB020008EB020008EB020008EB0200087C
:1000B000EB020008EB020008EB020008EB0200086C
:1000C000EB020008EB020008EB020008EB0200085C
:1000D000EB020008EB020008EB020008EB0200084C
:1000E000EB020008EB020008EB020008EB0200083C
:1000F000EB020008EB020008EB020008EB0200082C
:10010000EB020008EB020008EB020008EB0200081B
:10011000EB020008EB02000865300008EB02000863
:10012000EB020008EB020008EB020008EB020008FB
:10013000EB020008EB020008EB020008EB020008EB
:10014000EB020008EB020008EB020008EB020008DB
:10015000EB020008EB020008EB020008B5380008CB
:10016000EB020008EB020008EB020008EB020008BB
:10017000EB020008112C0008EB0200080000000050
:10018000EB020008EB020008EB020008EB0200089B
:10019000EB020008EB020008EB020008EB0200088B
:1001A000B1270008EB02000811040008EB02000868
:1001B000EB020008EB02000805040008EB0200084F
:1001C000EB020008EB0200081D040008EB02000827
:1001D000EB020008EB020008EB020008EB0200084B
:1001E000EB020008EB020008EB020008EB0200083B
:1001F000EB020008EB020008DFF80CD000F0EEF88C
:1002000000480047593B000820CE00202D4B1968BC
:100210000868B0E8F04F80F30988BFF36F8F4FF0A4
:10022000000080F311887047000000000848006853
:10023000006880F308884FF0000080F3148862B6ED
:1002400061B6BFF34F8FBFF36F8F00DF00BF00BFFA
:1002500008ED00E0DFF80C00016841F47001016076
:10026000704700BF88ED00E0EFF30980BFF36F8FA8
:10027000144B1A681EF0100F08BF20ED108A20E9F9
:10028000F04F106009B44FF0500072B680F311883F
:10029000BFF34F8FBFF36F8F62B604F079F84FF062
:1002A000000080F3118809BC19680868B0E8F04FB5
:1002B0001EF0100F08BFB0EC108A80F30988BFF35E
:1002C0006F8F704724000020EFF305807047000017
:1002D0000648804706480047FEE7FEE7FEE7FEE7E0
:1002E000FEE7FEE7FEE7FEE7FEE7FEE71130000867
:1002F000F90100082DE9F05F0546002092469B4673
:1003000088460646814640241BE02846414647462B
:10031000224600F053F853465A46C01A914110D372
:1003200011461846224600F03AF82D1A67EB0108EC
:100330004F4622460120002100F031F817EB00095A
:100340004E41201EA4F10104DFDC484631462A4616
:100350004346BDE8F09F40EA01039B0703D009E054
:1003600008C9121F08C0042AFAD203E011F8013BA1
:1003700000F8013B521EF9D27047D2B201E000F8FA
:10038000012B491EFBD270470022F6E710B5134639
:100390000A4604461946FFF7F0FF204610BD202A02
:1003A00004DB203A00FA02F1002070479140C2F1CC
:1003B000200320FA03F3194390407047202A04DBFE
:1003C000203A21FA02F00021704721FA02F3D040CE
:1003D000C2F120029140084319467047064C074D70
:1003E00006E0E06840F0010394E807009847103405
:1003F000AC42F6D3FFF704FF7C4900089C49000893
:10040000FEE70000014800F011B80000F8040020E9
:10041000014800F091B8000084040020014800F079
:100420002EB90000DC040020704770472DE9F04130
:10043000044600680569290605D580212164016903
:1004400041F080010161E80710D02220E063608E56
:10045000401C60862068A16AC0680870A06A401CC1
:10046000A0622068016941F001010161A8074FF015
:1004700000064FF020070ED52068016941F0020107
:100480000161C4E90F76618EA06A401AA06220461D
:1004900000F04FF86686E80510D5208E80B3E06A3C
:1004A000216800788860E06A401CE062208E401E6F
:1004B00020862068016941F480710161A8050BD58F
:1004C0002068016941F400710161A763204684F846
:1004D0003460266400F02EF841F67C40054226D0B8
:1004E000256415F07C0F21680A6942EA00020A615E
:1004F00014D0618EA06A6686E763401AA06213E09A
:10050000FFE72068016841F004010160E06A2168AA
:1005100000788860E06A401CE062CAE7280603D4DD
:1005200015F4E05F00D0A7632046FFF77EFFBDE82B
:10053000F0817047704770472DE9F0470446006826
:1005400000274FF004084FF0010946680568F107DD
:1005500014D0E90512D5036823F480730360606D3D
:1005600040F0010060652068C0F8089084F8518070
:1005700084F85070E16909B120468847B00615D566
:10058000A80413D520682022036823F400530360D5
:1005900020688260606D40F00200606584F85180E0
:1005A00084F85070E16909B120468847300715D5B5
:1005B000280513D520680822036823F4006303602C
:1005C00020688260606D40F00400606584F85180AE
:1005D00084F85070E16909B12046884770070CD54E
:1005E00068050AD52068026822F4806202602068EB
:1005F000C0F80880204600F02DF8B00713D5A805F4
:1006000011D520680222036823F400730360206878
:100610008260606D606584F8519084F85070A169C3
:1006200009B120468847F00612D5E80410D52068A5
:10063000016821F480510160226810219160616D90
:10064000616584F85190204684F85070FFF773FF7D
:10065000BDE8F087704790F83510022903D080215B
:10066000416501207047052180F835100068016858
:1006700021F001010160002070477047704710B5FC
:1006800004460068D0F80C14C90709D0D0F8081443
:10069000C90705D00121C0F81014204600F065F804
:1006A0002068D0F80C14890709D5D0F808148907F8
:1006B00005D50221C0F810142046FFF7DEFFA0691F
:1006C000002851D02068D0F8BC30D0F8C410D0F841
:1006D000C020D0F8C80019400B0400EA02001B0C2F
:1006E00003D0626942F00102626111F4F81F03D085
:1006F000616941F002016161C10703D0616941F0A4
:1007000004016161810703D5616941F008016161FC
:1007100010F00C0F03D0616941F010016161C10656
:1007200003D5616941F020016161810603D56169EA
:1007300041F040016161410603D5616941F08001EA
:100740006161010603D5616941F48071616110F452
:10075000F85F03D0606940F4007060616069002850
:1007600002D02046FFF78AFF10BD70472DE9F84FF1
:10077000DFF89CE100224FF001084FF0030B4FF02F
:100780000F0A00BF0B6808FA02F42340A34271D19C
:100790004D68022D01D0122D0FD1D5080E695707D3
:1007A00000EB8505A9462D6AFF0E0AFA07FCBE403C
:1007B00025EA0C052E43C9F820600F79550006681C
:1007C0000BFA05FC07F0030726EA0C06AF40374397
:1007D00007604E68012E05D0022E03D0112E01D0E5
:1007E000122E0ED18668CF6826EA0C06AF4037433A
:1007F000876046680F79A643C7F3001797403743D1
:100800004760C4688E6824EA0C04AE402643C66084
:100810004C68E40075D53F4C256845F4804525605B
:10082000246822F00306950704F4804400943A4CAF
:100830002D0F2644D6F80848DFF8E0C00AFA05F77D
:10084000604524EA070401D100272EE0344FB84266
:1008500001D1012729E0334FB84201D1022724E01A
:10086000314FB84201D103271FE0304FB84202D1C7
:1008700004271AE045E02E4FB84201D1052714E0C5
:100880002C4FB84201D106270FE02B4FB84201D1BF
:1008900007270AE0294FB84201D1082705E0284F71
:1008A000B84201D1092700E00A27AF402743754627
:1008B000C6F808784E68DEF80040F60324EA030420
:1008C00000D51C43124E2C60361D4D683468AD03B4
:1008D00024EA030400D51C430D4F346008374D68EB
:1008E0003C68ED0224EA030400D51C43084D3C603B
:1008F0000C354E682C68B60224EA030400D51C436C
:100900002C60521C102AFFF43DAFBDE8F88F0000A8
:10091000003C0140443802400030014000000240E9
:100920000004024000080240000C02400010024097
:100930000014024000180240001C02400020024047
:10094000002402400AB1816170470904FBE70000FE
:100950000148806870470000140000200248816848
:10096000027811448160704714000020032010B504
:1009700000F0F4F8002000F005F800F0A5F80020E1
:1009800010BD000010B500220146362088B000F0EE
:10099000C5F8362000F0B4F81348016841F01001A2
:1009A0000160006805A900F010000690684600F09C
:1009B000BBFE00F0DFFE0D49400000220C4CB0FBF6
:1009C000F1F10C4840F2E7330460C0E90332491EFC
:1009D000C0E9011201F0F2F910B1012008B010BD18
:1009E000044801F035FAF9E74038024040420F0070
:1009F00000100040EC0C002070472DE9F041044647
:100A0000006800274FF00408856B466B690715D511
:100A1000710713D5426B22F0040242632068C0F8CC
:100A20003C80D4F8A40040F00100C4F8A40084F88D
:100A3000A180204684F8A070FFF7DEFFA80716D536
:100A4000B00714D520680222436B23F002034363EE
:100A50002068C263D4F8A40040F00200C4F8A400E7
:100A600084F8A180204684F8A070FFF7C5FF05EA4E
:100A700006004FF00108C0070ED021684A6B22F033
:100A800001024A632168C1F83C8084F8A1802046B5
:100A900084F8A07000F015F8280710D530070ED59F
:100AA00020680822436B23F0080343632068C26375
:100AB00084F8A180204684F8A07000F003F8BDE817
:100AC000F0817047704700000C4882B0016841F027
:100AD00080510160006800F0805000900748001DC0
:100AE000016841F480410160006800220F2100F498
:100AF00080400090901E02B000F010B840380240D4
:100B0000002809DB410900F01F028900012001F1E2
:100B1000E0219040C1F80001704700000E4BF0B496
:100B20001B680D46C3F30223C3F10706042E00D948
:100B30000426191D072901D2002300E0DB1E012431
:100B400004FA06F19C40491E2940641E9940144055
:100B50002143F0BC02F0DFBF0CED00E0064900F0DD
:100B6000070210B54FF6FF040868044B204040EA26
:100B700002201843086010BD0CED00E00000FA05EB
:100B80007047704770477047704700002DE9FC5F61
:100B900004460068002681464D4602F0F6FE002815
:100BA0007ED1206802F01DFF002879D0206802F075
:100BB00018FF800704D52068416901F002014161F6
:100BC000206802F00EFF01034FF0010B04F5717075
:100BD000009077D5206802F0E3FEDFF838A40746DE
:100BE0006EE0F8076AD02068F1B202F0F2FE8046AB
:100BF000C00707D005EB4611C1F808BB31462046B7
:100C000002F00CF85FEA087034D5206821690129E8
:100C100000EB4611006C0190D1F8080B10D0FE4B90
:100C2000019A9A4215D1000403D54FF40040C1F84F
:100C3000080B204600F004FA2069012810D014E0C7
:100C4000019A524505D9000403D54FF40040C1F87C
:100C5000080B204600F0F4F901985045ECD804E068
:100C600020680121009A02F045FE05EB461108209C
:100C7000C1F8080B5FEAC86004D505EB46111020E7
:100C8000C1F8080B5FEA88600FD52069012804D1FC
:100C900020680121009A02F02DFE05EB461101E0CB
:100CA000C7E10FE02020C1F8080B5FEA884005D5B6
:100CB00005EB46114FF40050C1F8080B7F08761C75
:100CC000002F8ED1206802F08CFE40034FF0000A06
:100CD00060D5206802F05DFE0026074658E0F80760
:100CE00054D02068F1B202F062FE8046C00726D0E0
:100CF000D5F8342806F00F0C05EB46130BFA0CF070
:100D00008243C5F83428C3F808B92069012807D1FF
:100D1000C6EBC60004EB8000D0E9112111448164C8
:100D20002046F1B2FFF72EFF2069012807D136B91E
:100D3000206D20B920680121009A02F0DBFD5FEAF6
:100D4000087004D505EB46110820C1F808095FEAD0
:100D5000C86004D505EB46111020C1F808095FEA08
:100D6000486004D505EB46114020C1F808095FEA48
:100D7000887004D505EB46110220C1F808095FEA26
:100D8000086003D53146204601F0B6FF7F08761C87
:100D9000002FA4D1206802F024FE002811DAD5F833
:100DA000040820F00100C5F8040894F8F4030128B1
:100DB0003BD0204600F042F92068416901F0004133
:100DC0004161206802F00DFE00050BD5D5F808083A
:100DD000C00702D0204600F034F92068416901F4D0
:100DE00000614161206802F0FCFD00010AD5206825
:100DF000416901F00061416194F8F403E0B12046DB
:100E000000F01FF9206802F0ECFDC0046AD5D5F8A7
:100E1000040820F00100C5F804082068102102F041
:100E200095FD00214FF67F3227E00021204684F80F
:100E3000F4A3FFF7A5FEBFE784F8F4B32068406D84
:100E40000121C0F38300C4F8F8032046FFF798FEA1
:100E5000D8E700BF05EB4110C0F80829D0F80039E9
:100E600023F40013C0F80039C0F8082BD0F8003B79
:100E700023F40013C0F8003B491C60688842E9D89D
:100E8000D5F81C0840F00110C5F81C08206B60B1B3
:100E9000D5F8840840F00B00C5F88408D5F844085C
:100EA00040F00B00C5F844080CE0D5F8140842F2F5
:100EB0002B010843C5F81408D5F8100840F00B00C2
:100EC000C5F81008D5F8000820F4FE60C5F8000841
:100ED000217C2068009A02F00DFD2068416901F430
:100EE00080514161206802F07CFD800417D52068A4
:100EF00002F0E6FC206802F03BFD58B30320E060FE
:100F000000F032FC227B0146206802F07DFD204685
:100F100000F093F82068416901F4005141612068B4
:100F200002F05FFDC00639D52168886920F0100005
:100F30008861D9F8207007F00F01C7F34340C1EB77
:100F4000C101022804EB810505F5FE7505D00628D0
:100F500015D01EE0C4F80CA0D2E747F6F0710F429E
:100F600017D0C7F30A12E9681746484602F03DFD5C
:100F7000A969E8683944A9613844E86009E0009942
:100F80000822484602F031FDA969C7F30A10084457
:100F9000A8612068816941F010018161206802F038
:100FA00020FD000707D5204600F049F82068416978
:100FB00001F008014161206802F013FDC00208D56C
:100FC0002046F1B200F037F82068416901F4801141
:100FD0004161206802F005FD800208D52046F1B28B
:100FE00000F02AF82068416901F40011416120688D
:100FF00002F0F7FC400007D52046FFF7C2FD20684D
:10100000416901F080414161206802F0EAFC40073B
:101010000FD503E00A30544F0A31544F2068456819
:10102000680702D52046FFF7AFFD206841682943D5
:101030004160BDE8FC9F704770477047704770473C
:10104000704770471848F8B5016841F08051016059
:101050000068164C00F080500090206840F480300A
:101060002060FFF775FC4FF47A76054605E000BF77
:10107000FFF76EFC401BB0420FD86068C003F7D585
:10108000206840F400302060FFF762FC054606E06F
:10109000FFF75EFC401BB04201D90320F8BD606839
:1010A0008003F5D50020F8BD4038024000700040B4
:1010B0000248016841F4807101607047007000408F
:1010C0002DE9F84F04460078DFF824944FF000062D
:1010D0003746C0070ED0D9F8001021F40001C9F836
:1010E0000010D9F80010626B1143C9F80010606B52
:1010F00000B90126FE4D2068843500030ED5E16B52
:10110000286820F4401008432860E06BB0F5801F89
:1011100001D010B102E0012600E0012720684FF461
:10112000800BC0020CD5216C286820F440000843D5
:101130002860206C584501D1012601E000B9012743
:101140002068C10100D50126800666D5E848383000
:10115000016841F0805101600068DFF898A300F059
:1011600080500090DAF8001041F48071CAF8001045
:10117000FFF7EEFB804605E0FFF7EAFBA0EB080077
:1011800064287DD8DAF80000C005F5D5DFF8608363
:1011900008F16808D8F8000010F440702AD0218EB9
:1011A00001F44071814225D0D8F80010D8F8002011
:1011B00021F4407142F48032C8F80020D8F80020B1
:1011C00022F48032C8F80020C8F80010D8F80000D7
:1011D000C0070FD0FFF7BCFB824607E0FFF7B8FB64
:1011E000A0EB0A0141F288308142CAD8D8F8000049
:1011F0008007F3D5206BC0F3012103297ED0D9F8F5
:10120000001021F4F811C9F80010228ED8F800104F
:10121000C2F30B021143C8F800102078C00607D5AE
:10122000286820F0807028602868A16B0843286037
:101230002188AF488830490405D5626E016821F4E1
:101240004031114301602188090405D5A26E01686F
:1012500021F44021114301602168C90305D5E26EE4
:10126000016821F44011114301602168890305D50B
:10127000226F016821F4400111430160217800E0F0
:1012800034E1490605D5626C016821F00301114380
:1012900001602178090605D5A26C016821F00C01D6
:1012A000114301602188C90505D5E26C016821F070
:1012B0003001114301602188890505D5226D01683F
:1012C00021F0C001114301602188490505D5626DF7
:1012D000016821F44071114301602188090505D599
:1012E000A26D016821F44061114301602188C904A5
:1012F00007D5E26D016821F4405100E05FE0114341
:1013000001602188890405D5226E016821F44041DD
:10131000114301602168490205D5A26F016821F0DF
:1013200080611143016021684FF0006A890209D58C
:10133000E26F016821F0006111430160E16F5145E6
:1013400000D1012721680A0700D50127490305D5E7
:10135000626F016821F04071114301602168090248
:1013600006D5D4F88020016821F080511143016036
:101370002168490106D5D4F88420016821F0005184
:10138000114301602068000106D5D4F88810286850
:1013900020F00070084328602068C00006D5D4F80B
:1013A0008C10286820F0806008432860DFF848919E
:1013B000012E0ED02068B0F1007F0AD08FE04F4A96
:1013C000D9F80030104023F4F8120243C9F8002085
:1013D0001BE7D9F800004E4620F08060C9F80000F5
:1013E000FFF7B6FA804605E0FFF7B2FAA0EB080077
:1013F00064287BD830680001F6D421783C487C30E2
:10140000C90712D0616B81B9237A62680168D0F88C
:1014100000C09201C1F3014142EA0142CCF30361F1
:1014200042EA016141EA0371016021680A0303D5C0
:10143000E26BB2F5801F04D0C9021AD5216C594560
:1014400017D16368016894F80CC002689B01C1F36E
:10145000014143EA0141C2F3027241EA0C6141EAEF
:10146000027101602968626A21F01F01521E114356
:1014700029602168C90110D5238A62680168D0F803
:1014800000C09201C1F3036142EA034242EA0162F1
:10149000CCF3027142EA01710160216889010CD527
:1014A0006168228A237B94F808C0890141EA0241DD
:1014B00041EA036141EA0C7101603168B04641F0D4
:1014C00080613160FFF744FA064604E0FFF740FA16
:1014D000801B64280AD8D8F800000001F6D5E7B3CD
:1014E000D9F800004E4620F0805009E07BE0000073
:1014F000083802400070004000380240FFFCFF0F37
:10150000C9F80000FFF724FA074604E0FFF720FAC5
:10151000C01B642867D83068C0438000F6D52168B6
:1015200035480A0301D5E26B1AB1C9021DD5216CF9
:10153000D9B963690168277E02689B01C1F3014143
:1015400043EA0143C2F3027143EA076242EA0171CE
:10155000016029686FF0FF0300E04BE0A26A21F40C
:10156000F85103EB0222114329602168890212D548
:10157000E16F51450FD1238C6269016807689201C0
:10158000C1F3036142EA034242EA0162C7F3027116
:1015900042EA017101602178090716D56169026884
:1015A000D0F800C08B01277FC2F30362CCF3014166
:1015B00043EA014141EA026141EA0771016028689A
:1015C000E16A20F4403008432860306840F08050E1
:1015D0003060FFF7BDF9044608E000BFFFF7B8F937
:1015E000001B642802D90320BDE8F88F3068C0438F
:1015F0008000F3D40020F7E7883802402DE9F04757
:1016000005000F4663D0444E306800F00F00B8422A
:1016100009D2306820F00F0038433060306800F0A5
:101620000F00B84253D128683C4C810712D54007BF
:1016300003D5206840F4E05020602878000703D5E7
:10164000206840F460402060A968206820F0F00025
:10165000084320602878C0072AD0304968680839D4
:10166000012810D00968022810D0890700292EDA35
:10167000216821F0030101432160FFF769F98046E9
:1016800041F288390DE009688903EFE78901EDE748
:10169000FFF75EF9A0EB0801494502D90320BDE838
:1016A000F0876868216801F00C01B1EB800FEFD181
:1016B000306800F00F00B8420BD9306820F00F00FE
:1016C00038433060306800F00F00B84201D001208C
:1016D000E5E72878400705D5E968206820F4E05060
:1016E000084320602878000706D52869216821F47E
:1016F000604141EAC000206000F05CF82168084ABF
:10170000C1F30311515CC840064908600020FFF78F
:1017100039F90020C3E70000003C024008380240CD
:1017200044490008200000200D4A0F2330B5036013
:101730004FF4E0540B4B156805F003054560156840
:1017400005F0F0058560156805F4E055C560126880
:1017500004EAD2020261186800F00F00086030BD90
:1017600008380240003C0240014800687047000011
:10177000200000200449054809680068044AC1F3B4
:101780008221515CC8407047083802402000002088
:10179000544900080449054809680068044AC1F32F
:1017A0004231515CC8407047083802402000002098
:1017B00054490008154910B51548096811F00C0284
:1017C00013D01449042A0FD0082A0ED10F4C241F1D
:1017D0002268236802F03F025B0207D52068C0F34D
:1017E0008810A0FB010106E0084610BD2168C1F386
:1017F0008811A1FB00010023FEF77CFD2168C1F3E5
:101800000141491C4900B0FBF1F010BD083802400D
:101810000024F40040787D01F0B50D461F49204CAE
:10182000002887B016464FF000004FF002020F6804
:101830004FF0030319D047F004070F60096801F067
:101840000401059111020091CDE90120CDE9033099
:1018500014486946FEF78AFF206845EAC60120F071
:1018600078400843206007B0F0BD47F001070F60E3
:10187000096801F0010105914FF480710091CDE9F3
:101880000120CDE9033008486946FEF76FFF206864
:10189000354320F0EC602843E4E700003038024094
:1018A0000838024000080240000002402DE9F84FCD
:1018B00005004FF000076ED02878DFF82093A9F1DB
:1018C000040AC007AAF104044CD0D9F80010484615
:1018D000C1F38101012908D00068C0F3810002280A
:1018E0000AD1DAF80000400206D52068800339D515
:1018F00068680028DFD035E06868B0F5803F0BD01D
:1019000010B1B0F5A02F11D0206820F480302060F5
:10191000206820F4802002E0206840F480302060BD
:10192000686890B1FFF714F806460AE0206840F4B2
:1019300080202060F0E700BFFFF70AF8801B6428D2
:1019400072D820688003F7D50CE0FFF701F806464F
:1019500005E000BFFEF7FCFF801B6428F0D820687C
:101960008003F7D42878800742D5D9F8001048467C
:1019700011F00C0F08D00068C0F3810002280BD1D1
:10198000DAF80000400207D42068800718D5E8681C
:10199000012800D114E01EE1E8680028206817D073
:1019A00040F001002060FEF7D3FF064605E000BFCF
:1019B000FEF7CEFF801B0228C2D820688007F7D52B
:1019C0002869216821F0F80141EAC00020600FE099
:1019D00020F001002060FEF7BBFF064605E000BFD7
:1019E000FEF7B6FF801B02281ED820688007F7D4B8
:1019F0002878000729D5794869696C300029804624
:101A0000016812D041F001010160FEF7A1FF064616
:101A100005E000BFFEF79CFF801B022804D8D8F821
:101A200000008007F6D510E089E021F00101016097
:101A3000FEF78EFF064604E0FEF78AFF801B0228B1
:101A40007DD8D8F800008007F6D4287840076BD5F9
:101A5000DFF8888108F13808D8F80000C0000BD4FE
:101A6000D8F8001041F08051C8F80010D8F80000F4
:101A7000012700F08050009059480168C90512D430
:101A80000168834641F480710160FEF761FF0646FC
:101A900005E000BFFEF75CFF801B64284FD8DBF831
:101AA0000000C005F6D54D4EA868683601280AD05A
:101AB00008B1052811D0306820F00100306030688E
:101AC00020F0040002E0306840F001003060A868B7
:101AD000A0B1FEF73DFF83460CE0306840F0040003
:101AE0003060F0E7FEF734FFA0EB0B0141F28830E5
:101AF000814268D830688007F4D50EE0FEF728FFF1
:101B0000834607E0FEF724FFA0EB0B0141F288308B
:101B1000814258D830688007F4D42FB1D8F800102B
:101B200021F08051C8F80010A869E0B3D9F800107E
:101B3000C1F3810102294ED00228206800E042E072
:101B400020F08070206003D0FEF702FF05463DE0E4
:101B5000FEF7FEFE064604E0FEF7FAFE801B0228B2
:101B600031D820688001F7D4D5E90921DFF874C0A5
:101B7000D5E9070695F830304F0895F82C1030431A
:101B80000CEB074545EA8212104340EA016040EA47
:101B90000370CAF80000206840F080702060FEF7F3
:101BA000D7FE054605E014E0FEF7D2FE401B0228F2
:101BB00009D820688001F7D50BE000BFFEF7C8FE0A
:101BC000401B022802D90320BDE8F88F206880015D
:101BD000F4D40020F8E70120F6E7000008380240BE
:101BE000007000400000FFFF2DE9F047040005D021
:101BF00094F85D000025A56218B107E00120BDE85A
:101C0000F087204684F85C5000F050F8022284F8F7
:101C10005D204FF4E0632068016821F0400101601D
:101C2000E068984201D9002101E04FF48051B0F5FD
:101C3000706F02D0984200D0A5624FF00109266B68
:101C40002EB9984201D9226301E0C4F83090D4E95A
:101C50000468D4E90102278B46EA0806A36A104308
:101C600007F4007830432668D4E907C240EA080048
:101C700040EA0C00CC460427104318433060D4F8E7
:101C80001880666B606AE26807EA18472368304389
:101C90003A431043084358602068C16921F4006149
:101CA000C161256684F85DC00020A8E7F0B587B063
:101CB000044614216846FEF767FB224920688842E3
:101CC0003ED12148016841F480410160006800F480
:101CD000804005901C481038016841F00101016006
:101CE000016801F001010591016841F00201016004
:101CF000006802250024154F00F00200059005261B
:101D00006946E8020090CDE90154CDE90346384622
:101D1000FEF72CFD03210496A802CDE90005CDE9CC
:101D2000024169463846FEF721FD4FF440400090DD
:101D3000CDE9015406486946CDE90346FEF716FD94
:101D400007B0F0BD003800404038024000000240BB
:101D500000040240704770477047000070B590F86B
:101D60003C20012A24D0134C012580F83C5002224B
:101D700080F83D2002685368A242966802D00E4C5B
:101D8000A24203D14C6823F4700323430C6823F070
:101D9000700389681C435460002326F080060268A3
:101DA0003143916080F83D5080F83C30184670BD5A
:101DB000022070BD000001400004014010B5040085
:101DC00003D094F83D0010B107E0012010BD0020C1
:101DD00084F83C00204600F00DF8022084F83D0015
:101DE0002068211D01F044F9012084F83D00002005
:101DF00010BD000008B5124A01681248914207D18F
:101E0000016841F001010160006800F0010009E093
:101E10000D4A914208D1016841F400310160006827
:101E200000F40030009008BD084A9142FBD10168DF
:101E300041F480210160006800F48020F2E7000096
:101E40000000014044380240004401400048014085
:101E50000168094ACB6843F00103CB6001688868D8
:101E60001040062806D0B0F5803F03D0086840F047
:101E700001000860002070470700010070B50446AB
:101E800090F83C00012817D0324B012584F83C50D3
:101E9000022084F83D0022689068184020F47F40BA
:101EA00090600868502830D00DDC20284DD005DC2B
:101EB00098B310283BD148E0022070BD302844D0B0
:101EC000402834D139E0602828D0702806D0B0F5F9
:101ED000805F2CD0B0F5005F29D10AE04A68206805
:101EE000D1E9021301F02AF92068816841F07701F5
:101EF00009E04A682068D1E9021301F01FF920685F
:101F0000816841F48041816011E0CA6849682068B5
:101F100001F05CFA2068502107E016E0CA684968C1
:101F2000206801F064FA2068602101F010F90020B7
:101F300084F83D5084F83C0070BDCA684968206848
:101F400001F044FA20684021EFE72268014610467C
:101F5000EBE7000088FFFEFF704770B5044600689D
:101F600000250169C943890715D4C168C943890798
:101F700011D4EA1E0261012121772068806980075F
:101F8000204602D0FFF7E8FF04E000F017F92046F2
:101F900000F0E4F9257720680169C943490717D49F
:101FA000C168C943490713D402216FF004020261DA
:101FB00021772068806910F4407F204602D0FFF727
:101FC000CBFF04E000F0FAF8204600F0C7F92577CF
:101FD00020680169C943090716D4C168C9430907C4
:101FE00012D404216FF00802026121772068C069D1
:101FF0008007204602D0FFF7AFFF04E000F0DEF8D4
:10200000204600F0ABF9257720680169C943C9066D
:1020100017D4C168C943C90613D408216FF0100250
:10202000026121772068C06910F4407F204602D009
:10203000FFF792FF04E000F0C1F8204600F08EF9AF
:10204000257720680169C943C90708D1C168C94318
:10205000C90704D1891E0161204600F081F920687A
:102060000169C943090609D4C168C943090605D4F1
:102070006FF0800101612046FFF76DFE2068016965
:10208000C943C90509D4C168C943090605D46FF419
:10209000807101612046FFF75DFE20680169C94338
:1020A000490609D4C168C943490605D46FF0400107
:1020B0000161204600F05EF920680169C943890684
:1020C0000BD4C168C943890607D46FF020010161B0
:1020D0002046BDE87040FFF73FBE70BDF0B587B049
:1020E000044614216846FEF74FF9246800222B4865
:1020F0004FF002032A49844210D1086840F00400DE
:102100000860086800F00400059088150090CDE98B
:10211000013224486946CDE9032314E022484025D2
:102120004FF003068442214811D10C6844F020048A
:102130000C600968009501F02001CDE9013203929D
:10214000CDE904616946FEF711FB07B0F0BD184FF9
:10215000BC420FD10C6844F020040C60096801F007
:102160002001059180210091CDE90132CDE90326BE
:102170006946E8E70F488442E7D1086840F08000EC
:1021800008600868694600F0800005900920009505
:10219000CDE90132CDE903200748D4E7000400402F
:1021A0003038024000080240004401400014024060
:1021B0000048014000180040001C0240704770B504
:1021C000044690F83C000D4601280ED0012684F804
:1021D0003C60022084F83D000C2A45D007DC5AB14F
:1021E000042A1BD0082A78D12CE0022070BD102AC6
:1021F0004ED0142A71D15DE0206800F0B1FF206854
:10220000816941F0080181612068816921F0040140
:10221000816120682A698169114311E0206800F01A
:10222000D9FF2068816941F400618161206881697A
:1022300021F48061816120682969826942EA012173
:1022400081614AE0206801F001F82068C16941F02D
:102250000801C1612068C16921F00401C1612068E1
:102260002A69C169114311E0206801F02BF8206848
:10227000C16941F40061C1612068C16921F48061D4
:10228000C16120682969C26942EA0121C16124E073
:10229000206801F043F82068416D41F00801416574
:1022A0002068416D21F00401416520682A69416D73
:1022B000114311E0206801F05DF82068416D41F4A0
:1022C000006141652068416D21F4806141652068AD
:1022D0002969426D42EA01214165002084F83D6090
:1022E00084F83C0070BD10B5040003D094F83D00A4
:1022F00010B107E0012010BD002084F83C0020460A
:1023000000F00CF8022084F83D002068211D00F048
:10231000AFFE012084F83D00002010BD08B50C4A36
:1023200001680C48914207D1016841F00201016047
:10233000006800F0020009E0074A914207D10168F5
:1023400041F040010160006800F04000009008BDCD
:102350000004004040380240001800407047000070
:1023600000680349884201D1FEF7F8BA70470000BF
:1023700000100040704770472DE9F04102680446A4
:102380000025D0691168936810F00F0F5BD003F03F
:10239000010601F49077374369D0C70707D0CF050E
:1023A00005D501271762E26F42F00102E26782075A
:1023B00008D5DA0706D0276802223A62E26F42F0B7
:1023C0000402E267420708D5DA0706D02368042230
:1023D0001A62E26F42F00202E26702070AD501F0D8
:1023E0002002324306D0236808221A62E26F42F0CC
:1023F0000802E267E26F002A32D0800605D588061F
:1024000003D5216E09B1204688472168E06F8968AD
:10241000490601D4000725D5204601F086F820683A
:102420008168490619D5816821F040018160E06E1C
:1024300098B11A490165E06EFEF70DF900280FD03A
:10244000E06E016D06E0830611D58B060FD5216E77
:1024500012E02046BDE8F04108472046FFF78BFF19
:10246000BDE8F0812046FFF786FFE567F8E7030641
:1024700005D50B0603D5616E0029EAD1F0E74006C9
:10248000EED54806ECD513682021204623F0400302
:1024900013606167656600F089F9E1E717350008A8
:1024A00010B5040002D0606F10B107E0012010BD2C
:1024B000002084F87000204600F026F82420606791
:1024C0002068016821F001010160204601F098F8C0
:1024D0000128ECD0606A10B1204600F09AFF206815
:1024E000416821F4904141602068816821F02A010F
:1024F00081602068016841F0010101602046BDE86B
:10250000104000F0EABF0000F0B587B00746142184
:102510006846FDF739FF3B680024454A02254349D8
:1025200003264448082793422BD1404A10321368AF
:1025300043F480131360126802F4801205920A6853
:1025400042F004020A600A6802F0040205920A6876
:1025500042F008020A60096802AA01F00801059128
:102560008114CDE9001582E8D0006946FEF7FEF837
:102570000420694602AACDE900052F4882E8D00070
:1025800029E02A4ADFF8B4C01432634527D1106825
:1025900040F010001060106800F01000059008680E
:1025A00040F001000860086802AB0727694600F0A8
:1025B0000100059083E8D000214E1015CDE90005FB
:1025C0003046FEF7D3F870150090CDE90154CDE9FF
:1025D000034769463046FEF7C9F807B0F0BDDFF89B
:1025E00064C06345F9D1136843F020031360126897
:1025F00002F0200205920A6842F004020A600968AB
:1026000002AB01F004010591C021CDE9001583E87A
:10261000D0006946FEF7AAF8002205214720FEF700
:102620007DFA4720FEF76CFAD7E700003038024009
:102630000050004000080240000C02400010014021
:10264000000002400014014070B5836F202B4BD175
:10265000B9B1B2B190F87030012B45D08368012632
:1026600080F870600024416535030466AB42A0F831
:102670005820A0F85A204FF0FF0107D1026912B18B
:1026800026E0012070BD40F2FF1121E04FF07F02F3
:10269000E3B1B3F1805F1ED0A0F85C402221C46793
:1026A000816701688A6842F001028A608168A942F4
:1026B00001D10169B1B10D49016680F8704000682F
:1026C000016841F490710160002070BD036933B965
:1026D000A0F85C10E2E7016909B13F21F8E7A0F832
:1026E0005C20DBE70249E7E7022070BDA535000862
:1026F0004B35000870472DE9F8430446406F1F46EC
:1027000016460D4620284FD1CDB1C6B194F87000C1
:10271000012849D0012284F8702021214FF00008BF
:10272000C4F87C806167FEF713F98146A068A4F8BD
:102730005060A4F85260B0F5805F03D004E001203F
:10274000BDE8F883206910B12E46002510E0002670
:102750000EE08021204601F07DF8B8B9C6B116F828
:10276000010B21688862B4F85200401EA4F85200A0
:10277000B4F852004B464FF0000200970028E8D111
:102780004FF04001204601F065F838B10320D7E74B
:1027900035F8020B2168C0F30800E3E720216167E8
:1027A000002084F87080CBE70220C9E77047FEE77D
:1027B0000148FEF722B900003C0500202DE9F04752
:1027C00086B014216846FDF7DFFD6B48016841F0D3
:1027D00010010160016801F010010591016841F0EC
:1027E00040010160016801F040010591016841F07C
:1027F00002010160016801F002010591016841F0E8
:1028000008010160016801F008010591016841F0CB
:1028100004010160016801F004010591016841F0C3
:1028200001010160016801F001010591016841F4B5
:1028300000710160016801F400710591016841F4C3
:1028400080710160016801F480710591016841F4B3
:1028500080610160016801F480610591016841F0C7
:1028600020010160016801F020010591016841F03B
:102870008001016000684FF40047DFF800A10022EA
:1028800000F08000394605905046FEF75BF80024C2
:1028900047F23B0069460294CDE900045046FDF73B
:1028A00065FF022569460326A8020090CDE9015480
:1028B0003348CDE90346FDF759FFDFF8C8904FF4E0
:1028C0005140CDE90004694648460294FDF74EFFA9
:1028D000F8206946CDE900042B480294FDF746FF35
:1028E000DFF8A8803020CDE9000469464046029414
:1028F000FDF73CFF08200090CDE90154CDE90346E7
:1029000069464046FDF732FF01260097CDE9016494
:10291000694650460394FDF729FFE8010090CDE990
:1029200001541B4D6946039428460494FDF71EFF8D
:10293000184970038DE8130069464846FDF716FFF5
:1029400048206946CDE9000413480294FDF70EFFC4
:10295000124869460096CDE901042846FDF706FFB6
:1029600080206946CDE900040D480294FDF7FEFE83
:1029700006B0BDE8F0870000303802400024024075
:10298000000802400020024000280240000C0240E3
:102990000000024000001210001802400000111058
:1029A000001C02400E484FF4407230B400210B4C22
:1029B0004FF48273C0E9021201610722C0E90043AB
:1029C000416108238161C16101624162C0E90A126B
:1029D000C0E90C1330BCFFF707B900000038004015
:1029E0004C01002010B588B01C216846FDF7CCFCD6
:1029F0000F4800240D49C0E900148460C4600461DC
:102A00008461FFF7DBF90A48FFF76DFC6020694637
:102A1000CDE900040648002202940494FFF7CFFB9E
:102A20000348FFF75BFB08B010BD00000044014005
:102A30003002002010B588B01C216846FDF7A4FCC8
:102A40000F4800240D49C0E900148460C46004618B
:102A50008461FFF7B3F90A48FFF745FC6020694637
:102A6000CDE900040648002202940494FFF7A7FB76
:102A70000348FFF733FB08B010BD000000480140D9
:102A80007002002010B588B01C216846FDF77CFC60
:102A90000D4800240B49C0E900148460C46004613F
:102AA0008461FFF720FC60206946CDE900040648F8
:102AB000002202940494FFF782FB0348FFF70EFB09
:102AC00008B010BD00180040B002002010B588B05A
:102AD0001248002410490594069403940494009429
:102AE00001940294C0E900148460C46004614461EC
:102AF0008461FFF763F94FF480500390074803A9FE
:102B0000FFF7BCF905486946009401940294FFF769
:102B100025F908B010BD000000000140B001002000
:102B200010B58AB0002468461C21079408940994C3
:102B3000FDF72AFC10480F49C0E900148460C46006
:102B400004618461FFF7CFFB0B4807A90794099440
:102B5000FFF704F960206946CDE900040648082221
:102B600002940494FFF72BFB0348FFF7B7FA0AB06F
:102B700010BD000000040040F00100200A480021C0
:102B800030B4084C0C224FF4E1330460C0E9013149
:102B9000C160C0E904128161C1610162416230BC5F
:102BA000FFF77EBC00500040F00200200A480021E0
:102BB00030B4084C0C224FF4E1330460C0E9013119
:102BC000C160C0E904128161C1610162416230BC2F
:102BD000FFF766BC00100140700300200A48002186
:102BE00030B4084C0C224FF4E1330460C0E90131E9
:102BF000C160C0E904128161C1610162416230BCFF
:102C0000FFF74EBC00140140F0030020FEE77047C0
:102C10000148FDF7BBBF0000E40500202DE9F041AD
:102C20000E46016904460068202301294FF4004242
:102C3000016C00EB4615D5F8080B08D02C4FB942B3
:102C40004FD1010449D500BFC5F8082B4DE05FEA1C
:102C5000007CDFF8A0C004F5717711D5614503D978
:102C6000000401D5C5F8082B2046FEF7E9F92068D5
:102C700001213A4600F03EFE0820C5F8080B34E07A
:102C80005FEA806E02D5C5F8083B2EE010F0280FF1
:102C90002BD1614501D90004D6D4D5F8102BC6EB51
:102CA000C60004EB8000C2F31202D0F804128A1AA4
:102CB000C0F81422D0F808221144C0F808122046A7
:102CC000F1B2FDF760FF86B9D4F8100268B9206848
:102CD00001213A4600F00EFE07E0800601D5C5F856
:102CE000083B2046F1B2FDF74EFF0020BDE8F08121
:102CF0000A31544F0A30544F2DE9F84F0E460568FB
:102D00008146C1EBC60100EB8104D4E914203C34B8
:102D1000904202D90120BDE8F88FA168101A8142C3
:102D200000D20846C01C05EB461887081BE000BF10
:102D3000A268A0EB010A524500D2924699F8101001
:102D40000AF1030000911FFA8AF3E1688708284618
:102D5000F2B200F0CDFEE16801EB0A00E060A1698B
:102D600001EB0A00A061D8F8180980B2B84205D377
:102D7000D4E90501814201D20028D9D1D4E9050165
:102D8000884208D8D5F83418012006F00F02904088
:102D90008143C5F834180020BDE7F0B57E230370E9
:102DA00000224270082484700121C1700271022542
:102DB0004571AB268171CD27C6710772F0BD4FF406
:102DC0007A74204600F011FFFBE70000464C4FF0FC
:102DD0000009464D287800287ED06868B0F57A7FD3
:102DE0000CD34348FFF7D9FF414915230922A1F12C
:102DF0008000FFF780FC6870C5F8049064223A49AF
:102E000001F55B70FFF720FCD5F804C0BCF1640F3E
:102E10005FD395F800800020215C022922D0002297
:102E200021184B7803B300268B783240F3B100268B
:102E3000CB783240012B1BD000260B793240CBB12E
:102E400000264B793240332B16D0002389791A4063
:102E5000312913D000210A4236D0234B002164339C
:102E6000C01D12E00122DBE70126DDE70126DFE7D6
:102E70000126E2E70126E4E70123E7E70121EAE78B
:102E80005A54401C491C0D2901D2012600E000269D
:102E9000225C302A01D3012700E00027392A06EA04
:102EA000070601D8012700E000273E42E8D10D299E
:102EB0000AD1D1B20D2907D14FF000084A46414648
:102EC0006254491C6429FBD3401C6428A4D385F8B0
:102ED00000800CF1010C00E001E0C5F804C0012005
:102EE00000F083FE76E70000840000200000002050
:102EF00070040020502010B572B680F31188BFF323
:102F00004F8FBFF36F8F62B601F0F2FB18B1044927
:102F10004FF080500860002080F3118810BD000041
:102F200004ED00E070B5B8B0342124A8FDF72CFA08
:102F3000142131A8FDF728FA90216846FDF724FAFC
:102F4000FEF7B6F82F48016841F080510160006833
:102F500000F0805036902C48016841F440410160F7
:102F600000680225012600F44040369010200B2313
:102F700024938104EC032594CDE92760CDE92A51FF
:102F80002CA92996192204242F944FF4D87381E890
:102F90002C0024A8FEF78AFCFEF754F8EA024FF44E
:102FA000A05100243394CDE934120F20CDE931052E
:102FB000072131A8FEF722FBC020144A05AB049577
:102FC00003210295CDE9002003952A0283E86300DE
:102FD000099650040A96CDE90B4241000F941094D3
:102FE00015941994CDE91E01119468461C94169409
:102FF0002194FEF765F8002211461046FEF70CFCFE
:1030000038B070BD4038024000700040684C7A050E
:10301000104A30B51048146800210F4B44F4700476
:103020001460083305680D4A0D4C45F00105056034
:1030300019600368051D1340074A03600C322C60B9
:103040000568E305034C25F480250560803C11608C
:10305000236030BD88ED00E000380240FFFFF6FE3F
:10306000103000240148FEF778BF0000EC0C00206F
:10307000F0B5274B4FF0804E264D02689842264E01
:10308000264F274C09D0704507D0A84205D0B04242
:1030900003D0B84201D0A04205D1D1F804C022F03B
:1030A00070024CEA020298421BD0704519D0A84227
:1030B00017D0B04215D0B84213D0A04211D0194D4C
:1030C000A8420ED0184DA8420BD0184DA84208D0E7
:1030D000174DA84205D0174DA84202D0164DA84260
:1030E00003D1CD6822F440722A434D6922F0800258
:1030F0002A43026098428A68C2620A68826201D0EA
:10310000A04201D10969016301214161F0BD0000C4
:10311000000001400004004000080040000C004096
:1031200000040140004001400044014000480140CB
:1031300000180040001C00400020004042EA03222A
:1031400083680A4323F47F410A43826070478268A0
:1031500022F070020A4342F00701816070470000CC
:10316000F0B5026ADFF860C0184F22F00102DFF804
:1031700060E00262066A4268836926F002060D6812
:10318000B8428C6803EA0C0323F0030344EA060404
:1031900045EA030501D0704505D1CB6824F0080449
:1031A000234323F00404B84201D0704505D122F432
:1031B0004076D1E9053233431A434260856149685C
:1031C00041630462F0BD00008FFFFEFF000001407C
:1031D00000040140F0B5026A194E1A4C22F01002A8
:1031E000DFF864E00262056A4368826925F0200521
:1031F000D1F808C0A0420F6802EA060222F4407229
:1032000045EA0C1542EA072201D0704506D1CE6886
:1032100025F0800545EA061525F04005A04201D0BD
:10322000704507D1D1E9054623F4406343EA84039E
:1032300043EA860343608261496881630562F0BDA9
:10324000FF8FFFFE0000014000040140F0B5026A5C
:10325000194F1A4E22F48072DFF864E00262056AA8
:103260004368C26925F40075D1F808C0B0420C6803
:1032700002EA070222F0030245EA0C2544EA0204AE
:1032800001D0704506D1CF6825F4006242EA0722DA
:1032900022F48065B04201D0704507D123F440523A
:1032A000D1E9053642EA031242EA06134360C461DB
:1032B0004968C1630562F0BD8FFFFEFF0000014059
:1032C00000040140F0B5026A124B114F22F4805203
:1032D00098420262046A4268C36924F400548E680A
:1032E0000D6803EA070323F4407344EA063443EA13
:1032F000052302D0084DA84204D14D6922F4804232
:1033000042EA85124260C361496801640462F0BD0B
:10331000FF8FFFFE0000014000040140F0B5026A8B
:10332000DFF844C022F480320262056A4268446DCC
:1033300025F400350E8960450C4F0B6804EA07043C
:1033400045EA064543EA040302D0094CA04204D1F1
:103350004C6922F4803242EA0422426043654968A3
:1033600081650562F0BD0000000001408FFFFEFF97
:1033700000040140F0B5026ADFF844C022F4801274
:103380000262046A4268436D24F400140E896045A9
:103390000C4F0D6803EA070344EA065443EA052389
:1033A00002D0094DA84204D14D6922F4802242EA9C
:1033B0008522426043654968C1650462F0BD000032
:1033C00000000140FF8FFFFE0004014010B5036ABA
:1033D000046A23F00A0324F00104046284690B43A5
:1033E00024F0F00141EA02118161036210BD10B5C1
:1033F000036A23F0100303628369046A23F47043B1
:1034000024F0A00443EA0232826144EA011101621D
:1034100010BD90F82410C90706D00168836A4A6875
:1034200022F400321A434A6090F82410890706D526
:103430000168C36A4A6822F480321A434A6090F8ED
:103440002410490706D50168036B4A6822F48022DC
:103450001A434A6090F82410090706D50168436BA7
:103460004A6822F400421A434A6090F82410C906C0
:1034700006D50168836B8A6822F480521A438A60F9
:1034800090F82410890606D50168C36B8A6822F477
:1034900000521A438A6090F82410490611D5016839
:1034A000036C4A6822F480121A434A60016CB1F539
:1034B000801F06D10168436C4A6822F4C0021A4397
:1034C0004A6090F82410090606D50168826C4868A5
:1034D00020F4002010434860704738B500250446AA
:1034E000C567FDF735FA03462068006800070BD56D
:1034F0006FF07E400090002220464FF4001100F053
:10350000A9F908B1032038BD2020606784F8705005
:10351000A067002038BD10B5806B0021A0F85A10BC
:10352000A0F85210FEF727FF10BD10B50168202249
:1035300000230C6824F490740C6001688C6824F0FB
:1035400001048C608267036610BD10B5816FB0F80E
:103550005C202229016804D0886940F00800886155
:1035600010BD496A436D11401980416D891C416548
:10357000B0F85A10491EA0F85A10B0F85A10002995
:10358000EED10168202200230C6824F490740C60B2
:1035900001688C6824F001048C6082670366FFF781
:1035A000A9F810BD10B5816FB0F85C202229016820
:1035B00004D0886940F00800886110BD496A436DF5
:1035C00011401970416D491C4165B0F85A10491EEF
:1035D000A0F85A10B0F85A100029EED10168202244
:1035E00000230C6824F490740C6001688C6824F04B
:1035F00001048C6082670366FFF77CF810BD000051
:103600002DE9F04104468068DFF818C2864F236830
:10361000D4E90452E16928431E6800250A4383491E
:10362000104306EA0C0606431E604FF40042206871
:10363000E668436823F44053334343602368A66934
:10364000206AD3F808C030432CF4306606439E60ED
:103650002068B8420AD1086810F0030052D001284F
:103660007BD002287AD003286ED186E0704B984236
:103670000AD1086810F00C0079D004287BD0082803
:1036800077D00C2860D178E06A4B98420AD108685C
:1036900010F030006BD010286DD0202869D0302871
:1036A00052D16AE0644B98420AD1086810F0C00019
:1036B0005DD040285FD080285BD0C02844D15CE03A
:1036C0005E4B98420DD1086810F440704FD0B0F5B1
:1036D000807F50D0B0F5007F4BD0B0F5407F33D124
:1036E0004BE0574B98420FD1086810F4406009D066
:1036F000B0F5806F3FD0B0F5006F3AD0B0F5406FB5
:1037000022D13AE0012120E04E4B98420DD10868C9
:1037100010F440502BD0B0F5805F2CD0B0F5005F96
:1037200027D0B0F5405F0FD127E0474B98420BD12F
:10373000086810F440401AD0B0F5804F1BD090427A
:1037400017D0B0F5404F18D01021E0694FF6EF7652
:10375000904238D109295DD202E00CE009E006E090
:10376000DFE801F00D1027582A5858582D00002185
:10377000EBE70221E9E70421E7E70821E5E7FDF7A8
:10378000F9FF01E0FEF706F80146D4F8040049000D
:1037900001EB5001B1FBF0F080B2A0F11001B14299
:1037A00038D84FF6F0732168C0F342021840104336
:1037B00024E026496068EBE7FDF7FCFFE4E760687A
:1037C0004FF48031E4E7092924D2DFE801F005084D
:1037D00019231C2323231F00FDF7CCFF01E0FDF775
:1037E000D9FF0146D4F8040001EB5001B1FBF0F021
:1037F00080B2A0F11001B1420CD82168C8600AE083
:1038000013496068F0E7FDF7D5FFEAE7606802EB6F
:103810005001EBE701250020206660662846BDE8E0
:10382000F0810000F369FFEF001001409038024082
:103830000044004000480040004C00400050004060
:103840000014014000780040007C00400048E8017E
:103850000024F4002DE9F041984617460E46044630
:10386000069D08E0681C06D0FDF772F8A0EB080082
:10387000A8420BD855B12068C06936EA000017D0BD
:103880000020B842EED00020BDE8F0812168202061
:1038900000220B6823F4D0730B6021688B6823F03F
:1038A00001038B606067A067032084F87020EBE75A
:1038B0000120E6E70148FEF75FBD0000F0030020AD
:1038C000D0F800196FF30A01C0F80019D0F80818F1
:1038D000C1F34101022905D1D0F8001941F00301DB
:1038E000C0F80019D0F8041841F48071C0F8041829
:1038F0000020704710B5144C036CA34203D9D0F8D4
:10390000003B002B1EDB0023C0F8103B0129D0F840
:10391000101B41F40021C0F8101BD0F8101B41F01F
:103920001801C0F8101BD0F8101B41F0C041C0F8BE
:10393000101B07D1C0F8142BD0F8001B41F08021D8
:10394000C0F8001B002010BD0A30544F2023074A46
:1039500043EA811303610021491C914201D90320EC
:10396000704703699B06F7D400207047400D0300A1
:10397000D0F8080810F0060004D0022803D006286A
:1039800001D00020704703207047406900F001001B
:103990007047D0F81818D0F81C08084080B270475B
:1039A000D0F81818D0F81C080840000C704710B563
:1039B000D0F8102801F00F0300EB4114D0F83418B0
:1039C000D4F80809D94001F0010142EAC1110840C8
:1039D00010BD00EB4111D1F8081BD0F814080840C5
:1039E00070474169806908407047D21C00F58050DB
:1039F0009308002210B502E00468521C10C19A42DC
:103A0000FAD3084610BD0000032A3ED1264A274BB0
:103A10000A449A4201D20F2138E0254A254B0A4434
:103A20009A4201D20E2131E0234A244B0A449A42A1
:103A300001D20D212AE0224A224B0A449A4201D2A5
:103A40000C2123E0204B214A0B44934201D20B214D
:103A50001CE01F4B1F4A0B44934201D20A2115E080
:103A60001D4B1E4A0B4493420FD31D4B1D4A0B4462
:103A7000934201D2082109E01B4B1C4A1944914290
:103A800001D2072102E0062100E00921C2684FF4BB
:103A9000705322F47052C26003EA8123C168194353
:103AA000C160002070470000405327FF00350C0024
:103AB000401E1BFF40420F0000DC0BFF804F120036
:103AC000808CF9FE20D6130060B6E5FE60E3160098
:103AD00000D3CEFE40771B00C05BB3FEC091210037
:103AE00000CA91FE20753800E05459FEE09C410068
:103AF00010B5029C64B900EB0230DB1C00229B086D
:103B000000F5805002E010C90460521C9A42FAD3BA
:103B1000002010BDFEE7090700284FEA116104DB11
:103B200000F1E02080F80014704700F00F0000F171
:103B3000E02080F8141D704702E008C8121F08C179
:103B4000002AFAD170477047002001E001C1121F1E
:103B5000002AFBD17047000092B0FCF707FFFFF787
:103B6000E1F9FEF72BFEFEF71DFFFEF7AFFFFEF7B4
:103B7000D7FFFEF737FFFEF75DFFFEF783FFFEF787
:103B8000FDFFFFF713F8FFF729F8124B0DF1380C82
:103B90000FCB8CE80F0000210EA800F032F80E4C7D
:103BA0001C220C49103120616846FCF7D4FB00212F
:103BB000684600F039F807491C22A06007A82C319C
:103BC000FCF7C9FB002107A800F02EF8E06000F028
:103BD00013F8FEE7FC480008000000208428014696
:103BE0004FF0000000D0C81C704710B500B901208C
:103BF00000F066FB002010BD10B500F089FB00202E
:103C000010BD38B5D0E9011204683AB1C3682BB1D0
:103C100000200090204600F087FC38BD2046BDE81B
:103C20003840002200F05ABC7FB50D464169044679
:103C3000B0F9080081B1A16971B1FFF7CFFFD4E9F4
:103C400005122B468DE807002269D4E9001000F028
:103C500020FD039004B070BDFFF7C0FF03A92B4601
:103C6000CDE90001228AD4E9001092B200F0E4FC10
:103C7000012801D00020EDE70398EBE72DE9F041A2
:103C8000184C0F46054666692068001D00F044FA8E
:103C900038B922680121A06992F82C20914088430C
:103CA000A061681C07D137B12168BDE8F0410E481A
:103CB000091D00F07ABA20683544B5424560216894
:103CC00005D2A068091DBDE8F04100F056BA606851
:103CD000091D00F052FA206B854200D22563BDE831
:103CE000F081000024000020080E00202DE9F041A2
:103CF000054600F067FA2E4C2E4F2069401C2061CB
:103D0000206810B1E06940B32DE0256020690128EA
:103D100029D1002606EB860007EB800000F01FFA91
:103D2000761C072EF6D323488C3000F018FA214871
:103D3000A03000F014FA1F48B43000F010FA1D480B
:103D4000C83000F00CFA1B48DC3000F008FA1948C3
:103D50008C3060601430A06005E0E86A2168C96AB0
:103D6000814200D825600120E16A491CE162E96ACC
:103D7000A26988401043A06101EB8100291D07EB77
:103D8000800000F012FA00F041FAE06900280CD03F
:103D90002068E96AC06A884207D207494FF080501C
:103DA0000860BFF34F8FBFF36F8FBDE8F081000055
:103DB000240000202C0D002004ED00E010B5044686
:103DC00090F8550068B101280ED0022811D050207B
:103DD00072B680F31188BFF34F8FBFF36F8F62B657
:103DE000FEE7206B00F028FA2046BDE8104000F006
:103DF00023BA10BD11484FF4004110B5420706D058
:103E00000E49C01D20F00700411AC1F500410C4CBD
:103E1000002301440839A4F1100221F00701C4E98C
:103E200000030C1A11604B600B60C0E90014946031
:103E30004FF000415460D16010BD00001C0E002006
:103E400070000020154E4FF08058154CDFF854904C
:103E5000A6F1C80712E000BF00F0B4F9F068C56829
:103E6000281D00F059F92069401E2061E068401EBD
:103E7000E06000F0CBF92846FFF7A0FFE0680028DB
:103E8000EAD13868012805D9C9F80080BFF34F8FFF
:103E9000BFF36F8F00F060F9F0E70000F40D002031
:103EA0002400002004ED00E00346009829B10260E0
:103EB000C0E90F31012100F073BB0060F8E72DE984
:103EC000F0470E46994691001746DDE90984089DA2
:103ED000A5228246206BFCF750FA206B6FF003019D
:103EE00001EB8701084420F00707780709D050202C
:103EF00072B680F31188BFF34F8FBFF36F8F62B636
:103F0000FEE72218315C82F83410315C11B1401C9C
:103F10001028F6D3002684F84360072D00D3062529
:103F2000E562201DC4E9115600F024F904F11800DF
:103F300000F020F9E664C5F107002665A06184F869
:103F400054604A46246151463846646200F0CCF819
:103F5000B8F1000F206001D0C8F80040BDE8F0873C
:103F600030B5114900E011460A688242FBD34B6824
:103F70005C18844203D14468084623444B6043687C
:103F80001D18954209D1084C103C2468A24209D062
:103F900052681A4442600A6812680260814200D086
:103FA000086030BD0460F9E77000002006484168F1
:103FB000096829B14168C968C968496801637047DF
:103FC0004FF0FF31FAE70000240000200A48406863
:103FD000401C4FF0500072B680F3118805D0BFF33B
:103FE0004F8FBFF36F8F62B6FEE7BFF34F8FBFF304
:103FF0006F8F62B6FEE70000780000202DE9F041E7
:104000000027044600F0BCF9364E306808B9FFF7C7
:10401000F1FEF068044218D1BCB10834600710D03A
:1040200004F00700C0F108000444600709D05020E4
:1040300072B680F31188BFF34F8FBFF36F8F62B6F4
:10404000FEE714B17068844202D900F0F3FB38E057
:104050002448103001460D6801E028460D46696885
:10406000A14202D229680029F7D131688D42ECD0F3
:1040700007682968016008376868011B102910D992
:104080002819420709D0502072B680F31188BFF377
:104090004F8FBFF36F8F62B6FEE741606C60FFF732
:1040A0005FFF69687068401A7060B268904200D221
:1040B000B0600020F2681143C5E9000100F0BAFBCE
:1040C0000FB900F04AF8780709D0502072B680F393
:1040D0001188BFF34F8FBFF36F8F62B6FEE738468C
:1040E000BDE8F0816000002070B5041F094E231F59
:1040F0004FF0807521F0010125601C1F1960A0F1AF
:1041000020010B1F266044380A606FF002051D6015
:1041100070BD0000CD3F0008D0E9013201699A600E
:10412000D0E901235A604A68824201D182684A601C
:10413000002202610868401E08600868704700009D
:1041400010B5044C8023046004F15800086013602B
:1041500010BD0000940A00207047704770474FF070
:10416000FF3300F108010022C0E901130260C160C1
:104170000161704700210161704730B50B685A1C1E
:1041800002D000F1080202E0026904E0224654680D
:1041900025689D42FAD953684B6099608A605160E6
:1041A00008610168491C016030BD42684A6093683B
:1041B0008B6093685960916008610168491C0160D7
:1041C00070470000502072B680F31188BFF34F8F04
:1041D000BFF36F8F0B4962B64868401C48600128E6
:1041E0000ED10948006810F0FF0F09D0502072B6B8
:1041F00080F31188BFF34F8FBFF36F8F62B6FEE776
:10420000704700007800002004ED00E0094948688C
:1042100028B1401E486001D180F3118870475020BA
:1042200072B680F31188BFF34F8FBFF36F8F62B602
:10423000FEE700007800002070B500282BD0164D56
:10424000A0F108046068E968084209D1502072B6FC
:1042500080F31188BFF34F8FBFF36F8F62B6FEE715
:1042600022684AB1502072B680F31188BFF34F8F95
:10427000BFF36F8F62B6FEE78843606000F080F89E
:1042800060686968084468602046FFF769FEBDE819
:10429000704000F0CFBA70BD600000204FF0E02009
:1042A000002101614FF47A72816107230349096893
:1042B000B1FBF2F1491E416103617047200000200B
:1042C000020010B516D01048806B48B1502072B66D
:1042D00080F31188BFF34F8FBFF36F8F62B6FEE795
:1042E00000F04EF800211046FFF7C8FC00F0A2FADB
:1042F000002807D105494FF080500860BFF34F8F69
:10430000BFF36F8F10BD00002400002004ED00E01B
:1043100010B586B0002405AA04A9039403A8049448
:10432000FFF70EFFDDE9030100940023CDE9011042
:1043300011480FA1059A00F0ACF910490028486314
:1043400013D0502072B680F31188BFF34F8FBFF3A4
:104350006F8F62B601224FF0FF300863CA614C6173
:1043600006B0BDE8104000F059B806B010BD00001E
:1043700049444C4500000000453E00082400002050
:104380000248816B491C81637047000024000020B3
:1043900010B5204CA06B10B10120606210BD002050
:1043A000606220684FF0A531006B02688A4208D134
:1043B00042688A4205D182688A4202D1C068884236
:1043C00004D0216820683431FFF7C8FE1248A16983
:1043D000B1FA81F1C1F11F0101EB810150F82120F7
:1043E0006AB100EB810000F1080241684968416050
:1043F000914201D149684160C868206010BD5020D9
:1044000072B680F31188BFF34F8FBFF36F8F62B620
:10441000FEE70000240000202C0D00202B49FF2087
:104420001CB50A780192087008788DF800009DF894
:1044300000209DF8000002F0F002824209D05020D6
:1044400072B680F31188BFF34F8FBFF36F8F62B6E0
:10445000FEE79DF8002007201D4C02F0500222705C
:10446000A06005E09DF8002052008DF80020401E5D
:104470009DF800201206F5D40328A06009D0502032
:1044800072B680F31188BFF34F8FBFF36F8F62B6A0
:10449000FEE74FF44070A060019808700D48016875
:1044A00041F470010160016841F070410160FFF763
:1044B000F5FE00206060FBF7CDFE0748016841F083
:1044C00040410160FBF7B2FE00201CBD00E400E0AB
:1044D0007800002020ED00E034EF00E0F8B50500A2
:1044E00017460E4614D0EEB105FB06F04830FFF734
:1044F00085FD04000AD0002084F8460004F148023B
:104500003B46314628460094FFF7CEFC2046F8BDD6
:10451000502072B680F31188BFF34F8FBFF36F8FB7
:1045200062B6FEE70020E1E7F8B5069D18B163B179
:10453000FAB1A1B128E0502072B680F31188BFF320
:104540004F8FBFF36F8F62B6FEE7502072B680F3D5
:104550001188BFF34F8FBFF36F8F62B6FEE7502015
:1045600072B680F31188BFF34F8FBFF36F8F62B6BF
:10457000FEE749B1502072B680F31188BFF34F8F28
:10458000BFF36F8F62B6FEE748241C46012683F80E
:10459000466000932B46FFF787FC2046F8BD0000DD
:1045A0002DE9F04704008A4629D0FFF70BFE216869
:1045B0000025D4E90F23D4F840C004F110081046B8
:1045C0000E46401E4FF0FF3902FB031200FB0C1099
:1045D000BAF1000FA563A66084F8449084F8459072
:1045E0006260E06015D04046FFF7B9FD04F1240099
:1045F000FFF7B5FDFFF70AFE0120BDE8F087502068
:1046000072B680F31188BFF34F8FBFF36F8F62B61E
:10461000FEE720690028EDD0404600F0CFF80028E2
:10462000E8D004494FF080500860BFF34F8FBFF3CC
:104630006F8FDFE704ED00E02DE9FF5F9946164636
:104640008A4683469000DDE90E87FFF7D7FC050018
:104650001CD05820FFF7D2FC040014D000202563A2
:1046600084F855004B46CDE90087CDE9024032463B
:1046700051465846FFF723FC2046FFF737FB012041
:1046800004B0BDE8F09F2846FFF7D6FD4FF0FF309D
:10469000F6E7F0B585B0DDE90B740A9DA7B1ECB182
:1046A00058262763022684F85560002703970DF1EA
:1046B000100C0095CDE901C4FFF701FC2046FFF77F
:1046C00015FB049805B0F0BD502072B680F3118838
:1046D000BFF34F8FBFF36F8F62B6FEE7502072B605
:1046E00080F31188BFF34F8FBFF36F8F62B6FEE781
:1046F0002DE9F0412F4CA06B002740B1206A401CEF
:104700002062606A00B101273846BDE8F081666921
:10471000761C666115D16068006848B1502072B699
:1047200080F31188BFF34F8FBFF36F8F62B6FEE740
:104730006068A1686160A060A06A401CA062FFF789
:1047400035FCDFF87480206B864209D3606800680E
:1047500080B16068C068C568686886420DD2206311
:104760002068C06A00EB800158F821000128C8D9F0
:104770000127C6E74FF0FF30F1E7281DFFF7CCFC1B
:10478000A86A18B105F11800FFF7C6FCE86A012114
:10479000A26981401143A16100EB800108EB810017
:1047A000291DFFF702FD2068E96AC06A8142CDD366
:1047B0000127CBE7240000202C0D00202DE9F0413B
:1047C000C068C468ACB104F118000746FFF7A4FC48
:1047D000164D0126A86BB0B115483946FFF7E5FC28
:1047E000E06A2968C96A88421ED901206E62BDE864
:1047F000F081502072B680F31188BFF34F8FBFF362
:104800006F8F62B6FEE7201DFFF786FCE06AAA699B
:1048100006FA00F11143A961054900EB8000B439A3
:1048200001EB8000211DD9E70020E0E724000020F3
:10483000E00D00202DE9F0472D4DA86B0024264601
:1048400038B1FFF7BFFCA86B401EA863A86B50B13E
:1048500049E0502072B680F31188BFF34F8FBFF349
:104860006F8F62B6FEE7234F01202969D9B3A7F104
:10487000B40980463868E8B1F868C46804F11800E3
:10488000FFF74AFC201DFFF747FCE16AAA6908FA16
:1048900001F01043A86101EB810109EB8100211DAA
:1048A000FFF783FC2968E06AC96A8842E2D3C5F849
:1048B0002480DFE70CB1FFF779FB2C6A44B147464F
:1048C000FFF716FF00B16F62641EF9D10020286265
:1048D000686A40B1084901264FF080500860BFF374
:1048E0004F8FBFF36F8FFFF791FC3046BDE8F08725
:1048F00024000020E00D002004ED00E06400000032
:1049000001000000E80900204C0A00206C49000862
:10491000CD2D000801000000000000008000000014
:1049200000000000000000005C490008BF2D0008E6
:10493000FDFF0000000000008000000000000000FB
:10494000000000000000000000000000010203045D
:104950000607080900000000010203045374617295
:104960007452656164436F64655461005363616EA2
:10497000436F646552656164546173009C4900082B
:104980000000002084000000383B0008204A000896
:10499000840000209CCD0000483B0008010000007E
:1049A0000000000000000000000000000000000007
:1049B0000100000010000000000000000024F400CE
:1049C00000000000000000000000000000000000E7
:1049D00000000000000000000000000000000000D7
:1049E00000000000000000000000000000000000C7
:1049F00000000000000000000000000000000000B7
:104A000000000000000000000000000000000000A6
:104A10000000000000000000AAAAAAAA00000000EE
:04000005080001F9F5
:00000001FF
